:1000000015C1000041C100003FC100003DC100001A
:100010003BC1000039C1000037C1000035C10000FC
:1000200033C10000B9C40000B7C40000B5C400006B
:100030002BC1000029C1000027C1000025C100001C
:1000400023C1000021C100001FC100001DC100002C
:100050001BC1000019C1000017C1000053C40000FB
:1000600013C1000019C40000EEC300000DC1000060
:100070000BC1000009C1000007C1000005C100005C
:1000800003C1000001C10000FFC00000FDC000006E
:10009000FBC00000F9C00000F7C00000F5C0000080
:1000A000F3C00000F1C00000EFC00000EDC0000090
:1000B000EBC00000E9C00000E7C00000E5C00000A0
:1000C000E3C00000E1C00000DFC00000DDC00000B0
:1000D000DBC00000D9C00000D7C00000D5C00000C0
:1000E000D3C0000090029302820286028C02CA02F0
:1000F00097029B02A102A502A902AF02B302B702B6
:10010000CA02BD02C102C50200002100240027006E
:100110002A002D0030003300010100000401070116
:100120000A0100000A0B02090C0D0E080703040166
:1001300000000000000000000000000000000000BF
:10014000000000000000000000000000000012118C
:10015000100000000000000000000000000000008F
:100160000000000000000000000022002500280020
:100170002B002E00310034000201000005010801AF
:100180000B01000020002300260029002C002F0076
:100190003200000100000301060109010505050503
:1001A000070508080808020202020A0A08080404EF
:1001B000040401010101010101010303030303031D
:1001C0000303040707070C0C0C0C0C0C0C0C0202AC
:1001D000020206060606060606060B0B0B0B0B0BA9
:1001E0000B0B010210202008081020401020408036
:1001F00002010201080402010102040810204080EB
:100200008040201008040201800402018040201078
:1002100008040201080402010102040810204080C1
:1002200001020408102040804A05EE0811241FBE78
:10023000CFEFD1E2DEBFCDBF00E00CBF23E0AEE3E5
:10024000B2E001C01D92A03BB207E1F712E0A0E0CE
:10025000B2E0E6E7F2E100E00BBF02C007900D92CA
:10026000AE33B107D9F711E0C5E1D1E000E005C038
:1002700021970109802FFE01CDD7C431D10780E03D
:100280000807B1F7AED4E6C7BBCECF92DF92EF92AC
:10029000FF920F931F93CF93DF936C017A018B0131
:1002A000C0E0D0E0CE15DF0589F0D8016D918D0159
:1002B000D601ED91FC910190F081E02DC6011995D8
:1002C000892B11F47E0102C02196ECCFC701DF918A
:1002D000CF911F910F91FF90EF90DF90CF900895F5
:1002E000FC01538D448D252F30E0842F90E0821B3C
:1002F000930B541710F0CF96089501970895FC01C1
:10030000918D828D981761F0828DDF01A80FB11D4C
:100310005D968C91928D9F5F9F73928F90E0089570
:100320008FEF9FEF0895FC01918D828D981731F02A
:10033000828DE80FF11D858D90E008958FEF9FEF7E
:100340000895FC01918D228D892F90E0805C9F4F54
:10035000821B91098F739927089584EF92E0F1DF52
:1003600021E0892B09F420E0822F0895FC01848D7F
:10037000DF01A80FB11DA35ABF4F2C91848D90E0CF
:1003800001968F739927848FA689B7892C93A089AA
:10039000B1898C9180648C93938D848D981306C061
:1003A0000288F389E02D80818F7D80830895EF920C
:1003B000FF920F931F93CF93DF93EC0181E0888F1F
:1003C0009B8D8C8D981305C0E889F989808185FD06
:1003D00023C0F62E0B8D10E00F5F1F4F0F731127F8
:1003E000E02E8C8DE8120BC00FB607FCFACFE8891F
:1003F000F989808185FFF5CFCE01B8DFF2CF8B8DF3
:10040000FE01E80FF11DE35AFF4FF0820B8FEA89DE
:10041000FB898081806207C0EE89FF896083E8895B
:10042000F98980818064808381E090E0DF91CF91C1
:100430001F910F91FF90EF900895CF93DF93EC0100
:10044000888D8823C1F0EA89FB89808185FD05C0FC
:10045000A889B9898C9186FD0EC00FB607FCF5CF2F
:10046000808185FFF2CFA889B9898C9185FFEDCF76
:10047000CE017CDFE8CFDF91CF91089580E090E05E
:10048000892B19F06ADF811125C080E090E0892B6B
:1004900041F080E090E0892B21F00E940000811162
:1004A0001CC080E090E0892B41F080E090E0892B37
:1004B00021F00E940000811113C080E090E0892BA0
:1004C000A1F080E090E0892B81F00E940000811172
:1004D0000AC008950E940000D8CF0E940000E1CF1A
:1004E0000E940000EACF0C940000089590E0FC0107
:1004F0003197E231F10508F04DC08827EE58FF4FE3
:100500008F4F88C6809180008F7703C080918000D4
:100510008F7D80938000089580918000877FF9CF40
:1005200084B58F7702C084B58F7D84BD0895809196
:10053000B0008F7703C08091B0008F7D8093B000B2
:100540000895809190008F7707C0809190008F7DF3
:1005500003C080919000877F8093900008958091E0
:10056000A0008F7707C08091A0008F7D03C080918D
:10057000A000877F8093A0000895809120018F774D
:1005800007C0809120018F7D03C080912001877F6B
:10059000809320010895CF93DF93282F30E0F90155
:1005A000EE5DFE4F8491F901EE51FE4FD491F901B9
:1005B000E456FE4FC491CC2389F0811197DFEC2FD4
:1005C000F0E0EE0FFF1FEE57FE4FA591B491EC91B6
:1005D000ED2381E090E021F480E002C080E090E033
:1005E000DF91CF9108951F93CF93DF93282F30E0B1
:1005F000F901EE5DFE4F8491F901EE51FE4FD49169
:10060000F901E456FE4FC491CC23C1F0162F81119D
:100610006DDFEC2FF0E0EE0FFF1FE859FE4FA591C4
:10062000B4918FB7F894111105C09C91ED2FE0950E
:10063000E92302C0EC91ED2BEC938FBFDF91CF91BA
:100640001F910895CF93DF9390E0FC01EE51FE4F90
:100650002491FC01E456FE4F8491882361F190E0DF
:10066000880F991FFC01E85FFE4FC591D491FC01F2
:10067000E859FE4FA591B491611109C09FB7F89454
:100680008881209582238883EC912E230BC06230D1
:1006900061F49FB7F8943881822F809583238883F3
:1006A000EC912E2B2C939FBF06C08FB7F894E88156
:1006B0002E2B28838FBFDF91CF9108952091870241
:1006C000309188022817390771F490918502809142
:1006D0008602981741F0E0918502F0E0E25CFD4F60
:1006E000808190E008958FEF9FEF089508951F9304
:1006F000CF93DF93DC015C962D913C915D972115A2
:10070000310539F481E090E013969C938E93129713
:100710003DC05196ED91FC91529750969C91509707
:10072000892F80951FB75E964C915E9741FB772786
:1007300070F941FD6095F8944081772311F0492BC1
:1007400001C048234083E9012197F1F748E0508137
:1007500060FF02C0592B01C058235083E901219743
:10076000F1F76695415099F7772321F0908189231D
:10077000808303C08081982B90831FBF5C968D91EE
:100780009C915D970197F1F721E030E0C901DF917D
:10079000CF911F91089520918702309188022817E8
:1007A000390761F4809186022091850290E0805C97
:1007B0009F4F821B910960E470E019C580E090E0D2
:1007C0000895209187023091880228173907B9F4DB
:1007D0009091850280918602981789F0E0918502B8
:1007E000F0E0E25CFD4F80812091850230E02F5FD8
:1007F0003F4F2F7333272093850290E008958FEFAA
:100800009FEF0895E0918702F0918802E817F907B9
:1008100069F4A389B4899C918589809589238C93F7
:10082000109288021092870281E0089580E0089576
:10083000089580E090E0089560E087E1D4DE60E014
:1008400088E1D1CE03D51F920F920FB60F921124DB
:100850000BB60F922F933F934F935F936F937F93BA
:100860008F939F93AF93BF93EF93FF9384EF92E0A7
:100870007DDDFF91EF91BF91AF919F918F917F911E
:100880006F915F914F913F912F910F900BBE0F9001
:100890000FBE0F901F9018951F920F920FB60F92D8
:1008A00011240BB60F922F938F939F93EF93FF9387
:1008B000E0910403F09105038081E0910A03F09137
:1008C0000B0382FD12C0908180910D038F5F8F73A7
:1008D00020910E03821751F0E0910D03F0E0EC50EF
:1008E000FD4F958F80930D0301C08081FF91EF91A3
:1008F0009F918F912F910F900BBE0F900FBE0F9075
:100900001F9018951F920F920FB60F9211242F93DC
:100910003F938F939F93AF93BF938091E502909104
:10092000E602A091E702B091E8023091820223E052
:10093000230F2D3720F40196A11DB11D05C026E817
:10094000230F0296A11DB11D209382028093E50220
:100950009093E602A093E702B093E80280917E02B2
:1009600090917F02A0918002B09181020196A11D19
:10097000B11D80937E0290937F02A0938002B0937A
:100980008102BF91AF919F918F913F912F910F90D5
:100990000FBE0F901F9018951F920F920FB60F92D7
:1009A00011240BB60F922F933F934F935F936F9346
:1009B0007F938F939F93AF93BF93EF93FF93E091B8
:1009C0008702F0918802309709F451C0968DA68570
:1009D000B785858591FF04C09C91892329F447C080
:1009E0009C91892309F043C0A389B4899C9185898E
:1009F000809589238C93868997890197F1F7608D7B
:100A0000718DA685B785558538E020E0CB0101972B
:100A1000F1F7822F90E095958795282F4C914523EB
:100A200009F02068315091F7868D81FD20958091E5
:100A3000860290E001968F739927309185023817CE
:100A400049F0A0918602B0E0A25CBD4F2C93809348
:100A5000860203C0868D8160868F828D938D01977B
:100A6000F1F7A389B4899C918589892B8C93FF9197
:100A7000EF91BF91AF919F918F917F916F915F9116
:100A80004F913F912F910F900BBE0F900FBE0F9083
:100A90001F9018951092F7021092F60288EE93E0DC
:100AA000A0E0B0E08093F8029093F902A093FA02DC
:100AB000B093FB022DE132E03093F5022093F40273
:100AC00025EC30E0309301032093000324EC30E068
:100AD000309303032093020320EC30E030930503AE
:100AE0002093040321EC30E03093070320930603A6
:100AF00022EC30E0309309032093080326EC30E029
:100B000030930B0320930A0310920D0310920E03EF
:100B100010920F03109210031092940310929303FB
:100B20008093950390939603A0939703B0939803B3
:100B30008FE292E090939203809391031092A80326
:100B40001092A7031092AA031092A9031092AC036B
:100B50001092AB031092AE031092AD036091AF03FD
:100B60006E7F6D7F6093AF036695617081E068274B
:100B700082E139DD61E082E165DDE4EFF1E0E491FD
:100B8000E093A103EEEAF1E0E491F0E0EE0FFF1F45
:100B9000E859FE4F859194919093A3038093A2030B
:100BA00060E083E14FDD8091AF0381FD03C061E030
:100BB00083E119DD83E180939D03E5EFF1E0E491AA
:100BC000E0939E03EFEAF1E0E491F0E0EE0FFF1F07
:100BD000EE57FE4F859194919093A00380939F03CD
:100BE0000895789484B5826084BD84B5816084BDA5
:100BF00085B5826085BD85B5816085BD80916E00BB
:100C0000816080936E0010928100809181008260EB
:100C10008093810080918100816080938100809128
:100C200080008160809380008091B1008460809317
:100C3000B1008091B00081608093B00080919100FC
:100C400082608093910080919100816080939100F7
:100C5000809190008160809390008091A1008260DB
:100C60008093A1008091A10081608093A100809178
:100C7000A00081608093A000809121018260809318
:100C800021018091210181608093210180912001C7
:100C900081608093200180917A00846080937A0043
:100CA00080917A00826080937A0080917A008160DE
:100CB00080937A0080917A00806880937A00109205
:100CC000C10087E390E0909384028093830260E008
:100CD000B9DC61E086E1B6DC60E083E1B3DC61E0D1
:100CE00082E1B0DC1092AC031092AB031092AA0325
:100CF0001092A9031092A8031092A70385E690E032
:100D00009093AE038093AD0380919D0396EF980F6F
:100D1000943048F02EEC280F243028F022EC280FD5
:100D2000283008F06EC021E230E03093A803209311
:100D3000A70323E630E03093AA032093A90322E41B
:100D400030E03093AC032093AB03943060F02EEC92
:100D5000280F243040F022EC280F283008F436C247
:100D6000A0E0B0E035C2A8E6B0E0E8E6F0E020811F
:100D7000943018F08E53883010F081E001C084E088
:100D8000822B8C9380919D0396EF980F943058F0AE
:100D90002EEC280F243038F022EC280F283030F0C9
:100DA00020E030E005C02BE630E002C02DE630E068
:100DB0003093A5032093A403943010F49AEF0BC052
:100DC000823381F0833381F0843381F092EC980F89
:100DD000983070F492EC980F81E001C0880F9A95DA
:100DE000EAF707C088E005C084E003C082E001C0E4
:100DF00081E08093A6038091AD039091AE030197AB
:100E0000F1F78091AB039091AC03892B19F180919C
:100E100087029091880223E081399207D9F00097E8
:100E200009F0F0DC8091AF038E7F8093AF031092C6
:100E300086021092850281E993E090938802809364
:100E40008702E091A403F091A50390818091A6030D
:100E5000892B808361E085E2F5DB61E086E2F2DBED
:100E600061E08DE1EFDB61E08EE1ECDB61E087E1E9
:100E7000E9DB61E088E1E6DB60E080E3E3DB60E0A2
:100E80008FE2E0DB81E08093F102C1E070E1E72EC8
:100E900072E0F72EE4E0CE2ED12C81E993E07BDCEA
:100EA000892B39F081E993E08CDC80938E0280E01D
:100EB00001C082E080938D02823049F180918E02E0
:100EC000811103C0C093180222C0813019F410921E
:100ED00018021DC08230D9F410928A021092890241
:100EE0000091890210918A020230110574F481E99F
:100EF00093E067DCF801E557FD4F80830F5F1F4FDC
:100F000010938A0200938902EBCF10928D02809198
:100F100018028823E9F08091F302811119C08091B1
:100F2000F1028C279091F202981790F48091EF02D1
:100F30009091F002892B61F461E085E254DB61E07D
:100F40008DE151DB60E086E24EDB60E08EE14BDB61
:100F50008091F102882309F444C08091EF029091BE
:100F6000F002892B61F460E085E23DDB60E08DE119
:100F70003ADB60E086E237DB60E08EE134DB109242
:100F8000930280919402811115C061E088E12BDB0E
:100F900060E087E128DB8FE2FEDA90939002809395
:100FA0008F02019711F4C0939402809194028823D8
:100FB00091F342DC1092940261E087E114DB60E07F
:100FC00088E111DB80E3E7DA90939202809391024B
:100FD000019711F4C093930280919302882391F3B7
:100FE0002BDC1092F102C093F2028091EF029091FB
:100FF000F002892B09F45DC0F092EC02E092EB0262
:101000008091000290910102909396028093950244
:10101000809102029091030290939802809397022C
:10102000809104029091050290939A028093990214
:10103000809106029091070290939C0280939B02FC
:10104000809108029091090290939E0280939D02E4
:1010500080910A0290910B029093A00280939F02CC
:1010600080910C0290910D029093A2028093A102B4
:1010700080910E0290910F029093A4028093A3029C
:10108000D092F002C092EF021092EA021092E902AE
:101090002FB7F8948091E5029091E602A091E702C3
:1010A000B091E8022FBF9093EE028093ED02C093BF
:1010B000F3028091EF029091F002892B09F440C075
:1010C0008FB7F8944091E5025091E6026091E702F3
:1010D0007091E8028FBF8091E9029091EA0220911D
:1010E000ED023091EE02DA01A21BB30B9C01220F3C
:1010F000331FE091EB02F091EC02E20FF31F20812D
:1011000031812A173B07E4F401969093EA02809319
:10111000E9025093EE024093ED022091EF023091EC
:10112000F0028217930761F41092F0021092EF021E
:1011300060E086E258DA60E08EE155DA1092F30260
:101140008091EF029091F002892B09F43AC000914E
:10115000E9021091EA02000F111F000F111FF801A0
:10116000EB56FD4F80819181009761F081309105B0
:1011700039F0019669F460E085E235DA61E006C095
:1011800061E001C060E085E22EDA60E086E22BDA01
:10119000F801EB56FD4F82819381009761F0813019
:1011A000910539F0019669F460E08DE11CDA61E0A7
:1011B00006C061E001C060E08DE115DA60E08EE11B
:1011C00012DA61E086E10FDA59D967CEA8E6B0E01D
:1011D000283008F4CACDE0E0F0E0C9CD8FE292E01B
:1011E000909392038093910381E993E00BCB97FB5B
:1011F000072E16F4009406D077FD08D013D007FC14
:1012000005D03EF4909581959F4F08957095619516
:101210007F4F0895EE0FFF1F881F8BBF0790F69139
:10122000E02D1994AA1BBB1B51E107C0AA1FBB1FCD
:10123000A617B70710F0A61BB70B881F991F5A9562
:10124000A9F780959095BC01CD01089581E090E0CB
:10125000F89400C011E0C5E1D1E000E005C0802FA6
:10126000FE01D8DF2196011DC631D10780E00807B5
:06127000B1F7F894FFCF76
:101276000100FFFF010001000100FFFF0100010066
:10128600D007D007D007D0070100000000D70145DE
:101296000170011D02A1017F01930100000000778A
:0E12A60003450119047603CB03E1035E030048
:00000001FF
