:1000000015C1000041C100003FC100003DC100001A
:100010003BC1000039C1000037C1000035C10000FC
:1000200033C10000BCC40000BAC40000B8C4000062
:100030002BC1000029C1000027C1000025C100001C
:1000400023C1000021C100001FC100001DC100002C
:100050001BC1000019C1000017C1000056C40000F8
:1000600013C100001CC40000F1C300000DC100005A
:100070000BC1000009C1000007C1000005C100005C
:1000800003C1000001C10000FFC00000FDC000006E
:10009000FBC00000F9C00000F7C00000F5C0000080
:1000A000F3C00000F1C00000EFC00000EDC0000090
:1000B000EBC00000E9C00000E7C00000E5C00000A0
:1000C000E3C00000E1C00000DFC00000DDC00000B0
:1000D000DBC00000D9C00000D7C00000D5C00000C0
:1000E000D3C000009502980287028B028F02CF02D4
:1000F0009C02A002A602AA02AE02B402B802BC028E
:10010000CF02C202C602CA0200002100240027005A
:100110002A002D0030003300010100000401070116
:100120000A0100000A0B02090C0D0E080703040166
:1001300000000000000000000000000000000000BF
:10014000000000000000000000000000000012118C
:10015000100000000000000000000000000000008F
:100160000000000000000000000022002500280020
:100170002B002E00310034000201000005010801AF
:100180000B01000020002300260029002C002F0076
:100190003200000100000301060109010505050503
:1001A000070508080808020202020A0A08080404EF
:1001B000040401010101010101010303030303031D
:1001C0000303040707070C0C0C0C0C0C0C0C0202AC
:1001D000020206060606060606060B0B0B0B0B0BA9
:1001E0000B0B010210202008081020401020408036
:1001F00002010201080402010102040810204080EB
:100200008040201008040201800402018040201078
:1002100008040201080402010102040810204080C1
:1002200001020408102040804D05800811241FBEE3
:10023000CFEFD1E2DEBFCDBF00E00CBF12E0A0E007
:10024000B2E0EEEDF1E100E00BBF02C007900D92CD
:10025000A635B107D9F723E0A6E5B2E001C01D92AB
:10026000A136B207E1F711E0C5E1D1E000E005C039
:1002700021970109802FFE0181D7C431D10780E089
:100280000807B1F7B1D49AC7BBCECF92DF92EF92F5
:10029000FF920F931F93CF93DF936C017A018B0131
:1002A000C0E0D0E0CE15DF0589F0D8016D918D0159
:1002B000D601ED91FC910190F081E02DC6011995D8
:1002C000892B11F47E0102C02196ECCFC701DF918A
:1002D000CF911F910F91FF90EF90DF90CF900895F5
:1002E000FC01918D828D981761F0828DDF01A80F3E
:1002F000B11D5D968C91928D9F5F9F73928F90E060
:1003000008958FEF9FEF0895FC01918D828D9817CE
:1003100031F0828DE80FF11D858D90E008958FEF0B
:100320009FEF0895FC01918D228D892F90E0805CD4
:100330009F4F821B91098F739927089585EA92E058
:10034000F1DF21E0892B09F420E0822F0895FC01E0
:10035000848DDF01A80FB11DA35ABF4F2C91848D4E
:1003600090E001968F739927848FA689B7892C9383
:10037000A089B1898C9180648C93938D848D98131E
:1003800006C00288F389E02D80818F7D80830895E7
:10039000EF92FF920F931F93CF93DF93EC0181E0D5
:1003A000888F9B8D8C8D981305C0E889F989808191
:1003B00085FD23C0F62E0B8D10E00F5F1F4F0F73CE
:1003C0001127E02E8C8DE8120BC00FB607FCFACF78
:1003D000E889F989808185FFF5CFCE01B8DFF2CFBA
:1003E0008B8DFE01E80FF11DE35AFF4FF0820B8F5A
:1003F000EA89FB898081806207C0EE89FF8960837A
:10040000E889F98980818064808381E090E0DF91D0
:10041000CF911F910F91FF90EF900895CF93DF93AD
:10042000EC01888D8823C1F0EA89FB89808185FDF4
:1004300005C0A889B9898C9186FD0EC00FB607FC4E
:10044000F5CF808185FFF2CFA889B9898C9185FF8E
:10045000EDCFCE017CDFE8CFDF91CF91089580E032
:1004600090E0892B19F06ADF811125C080E090E0CF
:10047000892B41F080E090E0892B21F00E94000060
:1004800081111CC080E090E0892B41F080E090E079
:10049000892B21F00E940000811113C080E090E0C0
:1004A000892BA1F080E090E0892B81F00E94000070
:1004B00081110AC008950E940000D8CF0E94000058
:1004C000E1CF0E940000EACF0C9400000895362F7F
:1004D00090E0FC01EE5DFE4F4491FC01EE51FE4FB9
:1004E0002491FC01E456FE4F9491992309F46AC0CB
:1004F000442309F454C050E0FA013197E231F10588
:1005000008F04DC08827EE58FF4F8F4F37C68091B7
:1005100080008F7707C0809180008F7D03C080911D
:100520008000877F809380003AC084B58F7702C0B7
:1005300084B58F7D84BD33C08091B0008F7703C0B8
:100540008091B0008F7D8093B00029C08091900091
:100550008F7707C0809190008F7D03C080919000BD
:10056000877F809390001BC08091A0008F7707C089
:100570008091A0008F7D03C08091A000877F809331
:10058000A0000DC0809120018F7707C080912001CD
:100590008F7D03C080912001877F80932001E92F08
:1005A000F0E0EE0FFF1FE859FE4FA591B4918FB711
:1005B000F894EC91311103C020952E2301C02E2B0D
:1005C0002C938FBF0895CF93DF9390E0FC01EE5101
:1005D000FE4F2491FC01E456FE4F8491882361F183
:1005E00090E0880F991FFC01E85FFE4FC591D49100
:1005F000FC01E859FE4FA591B491611109C09FB764
:10060000F8948881209582238883EC912E230BC057
:10061000623061F49FB7F8943881822F80958323EC
:100620008883EC912E2B2C939FBF06C08FB7F89434
:10063000E8812E2B28838FBFDF91CF9108953FB79C
:10064000F89480919B0290919C02A0919D02B091A0
:100650009E0226B5A89B05C02F3F19F00196A11D4B
:10066000B11D3FBFBA2FA92F982F8827820F911D48
:10067000A11DB11DBC01CD0142E0660F771F881F8F
:10068000991F4A95D1F708952091A1023091A202B5
:100690002817390771F490919F028091A002981752
:1006A00041F0E0919F02F0E0EA5AFD4F808190E036
:1006B00008958FEF9FEF089508951F93CF93DF93D1
:1006C000DC015C962D913C915D972115310539F443
:1006D00081E090E013969C938E9312973DC05196C3
:1006E000ED91FC91529750969C915097892F80954F
:1006F0001FB75E964C915E9741FB772770F941FDDD
:100700006095F8944081772311F0492B01C048236C
:100710004083E9012197F1F748E0508160FF02C072
:10072000592B01C058235083E9012197F1F76695B1
:10073000415099F7772321F090818923808303C06A
:100740008081982B90831FBF5C968D919C915D97C3
:100750000197F1F721E030E0C901DF91CF911F91BE
:1007600008952091A1023091A2022817390761F45F
:100770008091A00220919F0290E0805C9F4F821B9D
:10078000910960E470E0C5C480E090E00895209194
:10079000A1023091A20228173907B9F490919F0263
:1007A0008091A002981789F0E0919F02F0E0EA5A48
:1007B000FD4F808120919F0230E02F5F3F4F2F73CC
:1007C000332720939F0290E008958FEF9FEF0895C5
:1007D000E091A102F091A202E817F90769F4A38958
:1007E000B4899C918589809589238C931092A2026B
:1007F0001092A10281E0089580E00895DBD4611594
:10080000710579F0FB0101900020E9F73197AF0104
:10081000461B570BDC01ED91FC910280F381E02D2A
:10082000199480E090E008950F931F93CF93DF9386
:10083000EC01E5DF8C0160E272E0CE01E0DF800FC9
:10084000911FDF91CF911F910F9108951F920F92E9
:100850000FB60F9211240BB60F922F933F934F9325
:100860005F936F937F938F939F93AF93BF93EF9318
:10087000FF9385EA92E06BDDFF91EF91BF91AF911D
:100880009F918F917F916F915F914F913F912F91A8
:100890000F900BBE0F900FBE0F901F9018951F92D8
:1008A0000F920FB60F9211240BB60F922F938F93C6
:1008B0009F93EF93FF93E091B502F091B602808190
:1008C000E091BB02F091BC0282FD12C09081809148
:1008D000BE028F5F8F732091BF02821751F0E091AB
:1008E000BE02F0E0EB55FD4F958F8093BE0201C034
:1008F0008081FF91EF919F918F912F910F900BBE6F
:100900000F900FBE0F901F9018951F920F920FB669
:100910000F9211242F933F938F939F93AF93BF9385
:100920008091970290919802A0919902B0919A02B9
:100930003091960223E0230F2D3720F40196A11D5C
:10094000B11D05C026E8230F0296A11DB11D2093FD
:1009500096028093970290939802A0939902B09385
:100960009A0280919B0290919C02A0919D02B0916D
:100970009E020196A11DB11D80939B0290939C0243
:10098000A0939D02B0939E02BF91AF919F918F91D2
:100990003F912F910F900FBE0F901F9018951F92AF
:1009A0000F920FB60F9211240BB60F922F933F9315
:1009B0004F935F936F937F938F939F93AF93BF9367
:1009C000EF93FF93E091A102F091A202309709F416
:1009D00051C0968DA685B785858591FF04C09C91F1
:1009E000892329F447C09C91892309F043C0A38936
:1009F000B4899C918589809589238C938689978970
:100A00000197F1F7608D718DA685B785558538E022
:100A100020E0CB010197F1F7822F90E09595879523
:100A2000282F4C91452309F02068315091F7868D8D
:100A300081FD20958091A00290E001968F73992707
:100A400030919F02381749F0A091A002B0E0AA5A55
:100A5000BD4F2C938093A00203C0868D8160868F4A
:100A6000828D938D0197F1F7A389B4899C91858933
:100A7000892B8C93FF91EF91BF91AF919F918F91B3
:100A80007F916F915F914F913F912F910F900BBE8E
:100A90000F900FBE0F901F9018951092A802109201
:100AA000A70288EE93E0A0E0B0E08093A9029093C3
:100AB000AA02A093AB02B093AC0224E032E03093E0
:100AC000A6022093A50225EC30E03093B2022093D9
:100AD000B10224EC30E03093B4022093B30220EC56
:100AE00030E03093B6022093B50221EC30E0309331
:100AF000B8022093B70222EC30E03093BA02209380
:100B0000B90226EC30E03093BC022093BB02109275
:100B1000BE021092BF021092C0021092C102109247
:100B20004503109244038093460390934703A09398
:100B30004803B093490384E192E090934303809388
:100B40004203109259031092580310925B031092C3
:100B50005A0310925D0310925C0310925F0310928F
:100B60005E03609160036E7F6D7F609360036695A6
:100B7000617081E0682782E1AADC61E082E123DD27
:100B8000E4EFF1E0E491E0935203EEEAF1E0E49166
:100B9000F0E0EE0FFF1FE859FE4F8591949190937E
:100BA00054038093530360E083E10DDD8091600383
:100BB00081FD03C061E083E18ADC83E180934E0321
:100BC000E5EFF1E0E491E0934F03EFEAF1E0E49127
:100BD000F0E0EE0FFF1FEE57FE4F8591949190933A
:100BE0005103809350030895CF93DF93CDB7DEB7C1
:100BF000A3970FB6F894DEBF0FBECDBF789484B52F
:100C0000826084BD84B5816084BD85B5826085BD08
:100C100085B5816085BD80916E00816080936E0096
:100C20001092810080918100826080938100809188
:100C30008100816080938100809180008160809339
:100C400080008091B10084608093B1008091B000F9
:100C500081608093B00080919100826080939100C8
:100C600080919100816080939100809190008160DB
:100C7000809390008091A10082608093A100809178
:100C8000A10081608093A1008091A0008160809389
:100C9000A000809121018260809321018091210137
:100CA00081608093210180912001816080932001E7
:100CB00080917A00846080937A0080917A008260CB
:100CC00080937A0080917A00816080937A0080918D
:100CD0007A00806880937A001092C100E091B5029A
:100CE000F091B60282E08083E091B102F091B2020D
:100CF0001082E091B302F091B4028FEC80831092E5
:100D0000BD02E091B902F091BA0286E08083E091E1
:100D1000B702F091B802808180618083E091B702D0
:100D2000F091B802808188608083E091B702F091F1
:100D3000B802808180688083E091B702F091B802A8
:100D400080818F7D808361E080E03DDC61E080E038
:100D50003ADC63E272E085EA92E066DD68E372E025
:100D600085EA92E061DD60E083E12DDC61E082E113
:100D70002ADC10925D0310925C0310925B031092C8
:100D80005A03109259031092580385E690E090930D
:100D90005F0380935E0380914E0396EF980F94302B
:100DA00048F02EEC280F243028F022EC280F2830B1
:100DB00008F06EC021E230E03093590320935803CD
:100DC00023E630E030935B0320935A0322E430E0C3
:100DD00030935D0320935C03943060F02EEC280F79
:100DE000243040F022EC280F283008F481C1A0E024
:100DF000B0E080C1A8E6B0E0E8E6F0E02081943001
:100E000018F08E53883010F081E001C084E0822B0E
:100E10008C9380914E0396EF980F943058F02EECFF
:100E2000280F243038F022EC280F283030F020E052
:100E300030E005C02BE630E002C02DE630E0309314
:100E4000560320935503943010F49AEF0BC082336D
:100E500081F0833381F0843381F092EC980F9830E5
:100E600070F492EC980F81E001C0880F9A95EAF730
:100E700007C088E005C084E003C082E001C081E0D3
:100E80008093570380915E0390915F030197F1F780
:100E900080915C0390915D03892B19F18091A102EF
:100EA0009091A20223E082349207D9F0009709F0D2
:100EB0008FDC809160038E7F809360031092A0028C
:100EC00010929F0282E493E09093A2028093A10289
:100ED000E0915503F0915603908180915703892B3F
:100EE0008083E091B502F091B60282E08083E091C8
:100EF000B102F091B2021082E091B302F091B4021B
:100F000083E380831092BD02E091B902F091BA02AE
:100F100086E08083E091B702F091B8028081806121
:100F20008083E091B702F091B8028081886080836D
:100F3000E091B702F091B802808180688083E091EF
:100F4000B702F091B80280818F7D808391E4392EC1
:100F50002AE0822E912CA12CB12C30E2232E8E017E
:100F60000F5F1F4F80917B00877F80937B003092C3
:100F70007C0080917A00806480937A0080917A006E
:100F800086FDFCCF809178002091790090E0922B33
:100F90006AE070E0BED07093A4026093A3026B017C
:100FA000072E000CEE08FF0877FF25C0E091A50290
:100FB000F091A6020190F081E02D6DE285EA92E0C9
:100FC000199522273327A9012C193D094E095F09DC
:100FD00019A2CE0181967C01CA01B901A501940133
:100FE000ABD0605DF70162937F01211531054105AA
:100FF000510591F714C0A701960119A2CE0181965F
:101000007C01CA01B901A501940196D0605DF70188
:1010100062937F01211531054105510591F7B70113
:1010200085EA92E0ECDB60E272E085EA92E0E7DBE1
:1010300061E080E04CDAF801222D11922A95E9F75F
:1010400085EA92E06FD9892B09F43CC01BA30AA35F
:1010500085EA92E045D9EAA1FBA18193FBA3EAA32B
:10106000EEDA6B017C0183E0482E512C612C712C4F
:10107000E6DADC01CB018C199D09AE09BF09883E77
:101080009340A105B10558F0F1E04F1A51086108ED
:10109000710828EEC20E23E0D21EE11CF11C41149F
:1010A00051046104710421F785EA92E03BD91816D6
:1010B000190674F2B80182E493E0B6DBB80185EA60
:1010C00092E0B2DB82E493E04CDB892B79F082E49E
:1010D00093E05DDBE091A502F091A6020190F08122
:1010E000E02D682F85EA92E01995ECCFB8D93ACF78
:1010F000A8E6B0E0283008F47FCEE0E0F0E07ECE55
:1011000084E192E0909343038093420382E493E06E
:101110005FCB97FB072E16F4009406D077FD08D01E
:1011200035D007FC05D03EF4909581959F4F0895EA
:10113000709561957F4F0895A1E21A2EAA1BBB1BE3
:10114000FD010DC0AA1FBB1FEE1FFF1FA217B30793
:10115000E407F50720F0A21BB30BE40BF50B661FA9
:10116000771F881F991F1A9469F76095709580956D
:1011700090959B01AC01BD01CF010895EE0FFF1FBB
:10118000881F8BBF0790F691E02D1994AA1BBB1BFB
:1011900051E107C0AA1FBB1FA617B70710F0A61B77
:1011A000B70B881F991F5A95A9F780959095BC0198
:1011B000CD01089581E090E0F89400C011E0C5E110
:1011C000D1E000E005C0802FFE01D8DF2196011D8F
:0E11D000C631D10780E00807B1F7F894FFCFD1
:1011DE0000000000C80145019201700184010E0259
:1011EE00000000005D034501B103C70344035C0327
:1011FE000D0A00534F494C204D4F495354555245FB
:10120E002053454E534F52002D2D2D2D2D2D2D2D6E
:10121E002D2D2D2D2D2D2D2D2D2D2D2D2D2D2D2DF0
:06122E002D2D2D2D2D00D9
:00000001FF
