:1000000015C1000043C1000041C100003FC1000014
:100010003DC100003BC1000039C1000037C10000F4
:1000200035C100009AC5000098C5000096C50000C3
:100030002DC100002BC1000029C1000027C1000014
:1000400025C1000023C1000021C100001FC1000024
:100050001DC100001BC1000019C1000034C5000013
:1000600015C1000059C400002EC400000FC10000DB
:100070000DC100000BC1000009C1000007C1000054
:1000800005C1000003C1000001C10000FFC0000065
:10009000FDC00000FBC00000F9C00000F7C0000078
:1000A000F5C00000F3C00000F1C00000EFC0000088
:1000B000EDC00000EBC00000E9C00000E7C0000098
:1000C000E5C00000E3C00000E1C00000DFC00000A8
:1000D000DDC00000DBC00000D9C00000D7C00000B8
:1000E000D5C0000099029C028B028F029502D302B8
:1000F000A002A402AA02AE02B202B802BC02C0026E
:10010000D302C602CA02CE0200002100240027004A
:100110002A002D0030003300010100000401070116
:100120000A0100000A0B02090C0D0E080703040166
:1001300000000000000000000000000000000000BF
:10014000000000000000000000000000000012118C
:10015000100000000000000000000000000000008F
:100160000000000000000000000020002300260026
:1001700029002C002F0032000001000003010601BD
:10018000090100002200250028002B002E0031006C
:10019000340002010000050108010B0105050505F9
:1001A000070508080808020202020A0A08080404EF
:1001B000040401010101010101010303030303031D
:1001C0000303040707070C0C0C0C0C0C0C0C0202AC
:1001D000020206060606060606060B0B0B0B0B0BA9
:1001E0000B0B010210202008081020401020408036
:1001F00002010201080402010102040810204080EB
:100200008040201008040201800402018040201078
:1002100008040201080402010102040810204080C1
:100220000102040810204080A50B890B11241FBE79
:10023000CFEFD1E2DEBFCDBF00E00CBF24E0AAE6E5
:10024000B3E001C01D92AD38B207E1F713E0A0E0C2
:10025000B2E0E2E4FDE100E00BBF02C007900D92C6
:10026000AA36B107D9F711E0C5E1D1E000E006C038
:1002700021970109802FFE010E945F0CC431D10734
:1002800080E00807A9F7FAD50C94900EB9CECF926A
:10029000DF92EF92FF920F931F93CF93DF936C0146
:1002A0007A018B01C0E0D0E0CE15DF0581F0D801E6
:1002B0006D918D01D601ED91FC910190F081E02DC1
:1002C000C6011995892B11F02196EECF7E01C70149
:1002D000DF91CF911F910F91FF90EF90DF90CF9022
:1002E0000895FC01538D448D252F30E0842F90E03C
:1002F000821B930B541710F0CF9608950197089521
:10030000FC01918D828D981761F0828DDF01A80F1D
:10031000B11D5D968C91928D9F5F9F73928F90E03F
:1003200008958FEF9FEF0895FC01918D828D9817AE
:1003300031F0828DE80FF11D858D90E008958FEFEB
:100340009FEF0895FC01918D228D892F90E0805CB4
:100350009F4F821B91098F73992708958DEC93E02D
:10036000F1DF21E0892B09F420E0822F0895FC01C0
:10037000848DDF01A80FB11DA35ABF4F2C91848D2E
:1003800090E001968F739927848FA689B7892C9363
:10039000A089B1898C91837080648C93938D848DB6
:1003A000981306C00288F389E02D80818F7D8083B9
:1003B0000895EF92FF920F931F93CF93DF93EC0179
:1003C00081E0888F9B8D8C8D981305C0E889F98911
:1003D000808185FD25C0F62E0B8D10E00F5F1F4F2D
:1003E0000F731127E02E8C8DE8120BC00FB607FC9F
:1003F000FACFE889F989808185FFF5CFCE01B7DF93
:10040000F2CF8B8DFE01E80FF11DE35AFF4FF08212
:100410009FB7F8940B8FEA89FB89808180620AC0BC
:100420009FB7F894EE89FF896083E889F989808114
:100430008370806480839FBF81E090E0DF91CF91E3
:100440001F910F91FF90EF900895CF93DF93EC01F0
:10045000888D8823C1F0EA89FB89808185FD05C0EC
:10046000A889B9898C9186FD0EC00FB607FCF5CF1F
:10047000808185FFF2CFA889B9898C9185FFEDCF66
:10048000CE0175DFE8CFDF91CF91089580E090E055
:10049000892B19F063DF811125C080E090E0892B62
:1004A00041F080E090E0892B21F00E940000811152
:1004B0001CC080E090E0892B41F080E090E0892B27
:1004C00021F00E940000811113C080E090E0892B90
:1004D000A1F080E090E0892B81F00E940000811162
:1004E0000AC008950E940000D8CF0E940000E1CF0A
:1004F0000E940000EACF0C940000089590E0FC01F7
:100500003197E231F10508F04EC08827EE58FF4FD1
:100510008F4F0C945F0C809180008F7703C0809187
:1005200080008F7D80938000089580918000877F78
:10053000F9CF84B58F7702C084B58F7D84BD0895CF
:100540008091B0008F7703C08091B0008F7D809341
:10055000B0000895809190008F7707C0809190003F
:100560008F7D03C080919000877F809390000895D5
:100570008091A0008F7707C08091A0008F7D03C07D
:100580008091A000877F8093A00008958091200132
:100590008F7707C0809120018F7D03C0809120015B
:1005A000877F80932001089520916C0330916D0323
:1005B0002817390771F490916A0380916B0398179B
:1005C00041F0E0916A03F0E0EC57FC4F808190E04D
:1005D00008958FEF9FEF089508951F93CF93DF93B2
:1005E000DC015C968D919C915D97009739F421E038
:1005F00030E013963C932E9312973BC05196ED91A9
:10060000FC91529750962C915097322F30951FB7EE
:100610005E964C915E97742F727041FD6095F894D0
:100620004081772311F0422B01C043234083EC012A
:100630002197F1F748E0508160FF02C0522B01C0C2
:1006400053235083EC012197F1F76695415099F7B8
:100650008081772319F08323808302C0282B208395
:100660001FBF5C968D919C915D970197F1F781E09A
:1006700090E0DF91CF911F91089520916C0330910C
:100680006D032817390769F480916B0320916A0381
:1006900090E0805C9F4F821B910960E470E00C94B5
:1006A0004C0C80E090E0089520916C0330916D0334
:1006B00028173907B9F490916A0380916B03981752
:1006C00089F0E0916A03F0E0EC57FC4F80812091C3
:1006D0006A0330E02F5F3F4F2F73332720936A0365
:1006E00090E008958FEF9FEF0895089580E090E0E7
:1006F0000895089581E693E008950E947C0E0F937B
:100700001F93CF93DF93EC0188819981009729F0A3
:100710002A813B812617370788F48B016F5F7F4F53
:100720000E949C0D009761F0998388831B830A8344
:100730002C813D81232B11F4FC01108281E001C04A
:1007400080E0DF91CF911F910F910895CF93DF93B8
:10075000EC0188819981009711F00E94130D198294
:1007600018821D821C821B821A82DF91CF9108950C
:10077000EF92FF920F931F93CF93DF93EC01FB0156
:1007800004811581E080F180E114F104C1F00115CC
:100790001105B9F08C819D81080F191FB801CE0198
:1007A000AEDF882361F0288139818C819D81B7017A
:1007B000820F931F0E94890E1D830C8302C0CE01FD
:1007C000C5DFCE01DF91CF911F910F91FF90EF9088
:1007D0000895FC01808191810C94130DEF92FF929A
:1007E0000F931F93CF93DF93FC011182108213822A
:1007F0001282158214828617970729F1DB010D9169
:100800001C91119701151105F1F0EC011496ED9072
:10081000FC901597B70173DF811108C0CE01DF91FD
:10082000CF911F910F91FF90EF9090CFFD82EC82BE
:10083000B80188819981DF91CF911F910F91FF902D
:10084000EF900C94890EDF91CF911F910F91FF9043
:10085000EF900895EF92FF920F931F93CF93DF9342
:10086000EC01198218821B821A821D821C8261157A
:10087000710511F18B01FB0101900020E9F731971F
:100880007F01E61AF70AB7013ADF811108C0CE01ED
:10089000DF91CF911F910F91FF90EF9057CFFD8285
:1008A000EC82B80188819981DF91CF911F910F91DE
:1008B000FF90EF900C94890EDF91CF911F910F91D3
:1008C000FF90EF9008951F920F920FB60F92112490
:1008D0000BB60F922F933F934F935F936F937F933A
:1008E0008F939F93AF93BF93EF93FF938DEC93E020
:1008F0003EDDFF91EF91BF91AF919F918F917F91DD
:100900006F915F914F913F912F910F900BBE0F9080
:100910000FBE0F901F9018951F920F920FB60F9257
:1009200011240BB60F922F938F939F93EF93FF9306
:10093000E091DD03F091DE038081E091E303F0912B
:10094000E40382FD12C090818091E6038F5F8F7374
:100950002091E703821751F0E091E603F0E0E353C2
:10096000FC4F958F8093E60301C08081FF91EF914A
:100970009F918F912F910F900BBE0F900FBE0F90F4
:100980001F901895CF93DF93282F30E0F901EE5D8B
:10099000FE4F8491F901EE51FE4FD491F901E456D6
:1009A000FE4FC491CC2389F08111A8DDEC2FF0E03B
:1009B000EE0FFF1FE859FE4FA591B491EC91ED2386
:1009C00081E090E021F480E002C080E090E0DF91DF
:1009D000CF910895D7CF1F93CF93DF93282F30E087
:1009E000F901EE5DFE4F8491F901EE51FE4FD49175
:1009F000F901E456FE4FC491CC23B9F0162F8111B2
:100A00007DDDEC2FF0E0EE0FFF1FEE57FE4FA591BE
:100A1000B4919FB7F894111104C08C91D095D8234C
:100A200002C0EC91DE2BDC939FBFDF91CF911F9131
:100A30000895D1CFCF93DF9390E0FC01EE51FE4FAC
:100A40002491FC01E456FE4F8491882361F190E0EB
:100A5000880F991FFC01E85FFE4FC591D491FC01FE
:100A6000EE57FE4FA591B491611109C09FB7F8945C
:100A70008881209582238883EC912E230BC06230DD
:100A800061F49FB7F8948881322F3095832388834F
:100A9000EC912E2B2C939FBF06C08FB7F894E88162
:100AA0002E2B28838FBFDF91CF9108952FB7F89415
:100AB0006091C9037091CA038091CB039091CC03DC
:100AC0002FBF0895F3CF1F920F920FB60F921124EC
:100AD0002F933F938F939F93AF93BF938091C903BD
:100AE0009091CA03A091CB03B091CC033091C8037D
:100AF00023E0230F2D3720F40196A11DB11D05C061
:100B000026E8230F0296A11DB11D2093C8038093F0
:100B1000C9039093CA03A093CB03B093CC038091F5
:100B2000C4039091C503A091C603B091C703019679
:100B3000A11DB11D8093C4039093C503A093C60368
:100B4000B093C703BF91AF919F918F913F912F9128
:100B50000F900FBE0F901F9018951F920F920FB617
:100B60000F9211240BB60F922F933F934F935F93E5
:100B70006F937F938F939F93AF93BF93EF93FF9365
:100B8000E0916C03F0916D03309709F451C0968D9C
:100B9000A685B785858591FF04C09C91892329F49A
:100BA00047C09C91892309F043C0A389B4899C91D3
:100BB0008589809589238C93868997890197F1F798
:100BC000608D718DA685B785558538E020E0CB0115
:100BD0000197F1F7822F90E095958795282F4C91FA
:100BE000452309F02068315091F7868D81FD2095CD
:100BF00080916B0390E001968F73992730916A037F
:100C0000381749F0A0916B03B0E0AC57BC4F2C9360
:100C100080936B0303C0868D8160868F828D938D58
:100C20000197F1F7A389B4899C918589892B8C93CD
:100C3000FF91EF91BF91AF919F918F917F916F91B4
:100C40005F914F913F912F910F900BBE0F900FBE70
:100C50000F901F90189580E395DE21E0019709F031
:100C600020E0822F08958091000290910102029766
:100C700079F4F1DF882361F060E087E1ACDE60E0C9
:100C800088E1A9DE83E090E0909301028093000266
:100C90008091000290910102019781F48FE272DE4F
:100CA000019761F460E087E196DE60E088E193DE21
:100CB00083E090E0909301028093000208950F93E7
:100CC0001F93CF93DF93CDB7DEB762970FB6F8943B
:100CD000DEBF0FBECDBF8C0169E672E0CE010D967E
:100CE000B9DD64EA72E0CE010796B4DD68E672E031
:100CF000CE010196AFDDBE01695F7F4FCE01019647
:100D000037DDBE01635F7F4F33DDBC01C80166DDA7
:100D1000CE0101965EDDCE0107965BDDCE010D961C
:100D200058DDC80162960FB6F894DEBF0FBECDBF86
:100D3000DF91CF911F910F910895009761F0FC0111
:100D400001900020E9F73197AF01481B590BBC0116
:100D50008DEC93E09CCA80E090E008950F931F9380
:100D6000CF93DF93EC010C811D810F5F1F4FB80102
:100D7000C6DC882361F0288139818C819D8163EEF6
:100D800072E0820F931FC5D71D830C8302C0CE0172
:100D9000DDDCCE01DF91CF911F910F910895EF928D
:100DA000FF920F931F93CF93DF93EB01C6DF7C017C
:100DB00087E693E0C2DF8C01CE01BFDFEC0160E08B
:100DC0008DEC93E0F6DA0E0D1F1DC00FD11F8C0FB6
:100DD0009D1FDF91CF911F910F91FF90EF9008958C
:100DE0008F929F92AF92BF92EF92FF920F931F93B9
:100DF000CF93DF938B017C01C0E0D0E0C017D10717
:100E000089F154DE6093D5037093D6038093D703A2
:100E10009093D8038DEC93E073DA97FF1EC046DE03
:100E20008090D5039090D603A090D703B090D803BC
:100E3000DC01CB0188199909AA09BB098090D1036B
:100E40009090D203A090D303B090D4038815990555
:100E5000AA05BB05F8F28E0105C0F70181937F0159
:100E60002196CCCFC801DF91CF911F910F91FF90B8
:100E7000EF90BF90AF909F908F900895CF93DF93A6
:100E8000CDB7DEB76F970FB6F894DEBF0FBECDBFFC
:100E9000789484B5826084BD84B5816084BD85B555
:100EA000826085BD85B5816085BD80916E00816061
:100EB00080936E0010928100809181008260809307
:100EC0008100809181008160809381008091800009
:100ED0008160809380008091B10084608093B10034
:100EE0008091B00081608093B00080919100826019
:100EF0008093910080919100816080939100809116
:100F000090008160809390008091A1008260809326
:100F1000A1008091A10081608093A1008091A00038
:100F200081608093A00080912101826080932101E3
:100F30008091210181608093210180912001816055
:100F40008093200180917A00846080937A00809160
:100F50007A00826080937A0080917A008160809329
:100F60007A0080917A00806880937A001092C100A4
:100F7000E091DD03F091DE0382E08083E091D9030C
:100F8000F091DA031082E091DB03F091DC038FEC47
:100F900080831092E503E091E103F091E20386E0A3
:100FA0008083E091DF03F091E003808180618083A2
:100FB000E091DF03F091E003808188608083E0911D
:100FC000DF03F091E003808180688083E091DF039C
:100FD000F091E00380818F7D808360E08AE02ADDEC
:100FE00061E089E027DD109285041092840410925C
:100FF00083041092820410928104109280048DE97F
:1010000091E090938704809386048091760496EF14
:10101000980F943048F02EEC280F243028F022EC62
:10102000280F283008F072C02DEB30E03093810497
:10103000209380042BE931E03093830420938204D1
:101040002CE231E03093850420938404943060F0E6
:101050002EEC280F243040F022EC280F283008F026
:1010600050C3A8E6B0E04FC3A8E6B0E0E8E6F0E081
:101070002081943048F09EEC980F943028F08E53E5
:10108000883010F484E001C081E0822B8C93809141
:10109000760496EF980F943058F02EEC280F2430F9
:1010A00038F022EC280F283030F020E030E005C086
:1010B0002BE630E002C02DE630E030937E04209332
:1010C0007D04943010F49AEF0BC0823381F08333A7
:1010D00081F0843381F092EC980F983070F492ECA8
:1010E000980F81E001C0880F9A95EAF707C088E061
:1010F00005C084E003C082E001C081E080937F04EA
:1011000080918604909187040197F1F7809184047F
:1011100090918504892B49F1E0916C03F0916D0366
:1011200084E0EA36F80709F1309739F0A389B489E9
:101130009C918589809589238C93809188048E7FEA
:101140008093880410926B0310926A038AE694E0FD
:1011500090936D0380936C03E0917D04F0917E0485
:10116000908180917F04892B808361E085E262DC3D
:1011700061E086E25FDC61E08DE15CDC61E08EE1F4
:1011800059DC60E085E227DC60E086E224DC60E098
:101190008DE121DC60E08EE11EDC82E090E0909346
:1011A00005028093040261E086E144DC60E086E1B0
:1011B00012DC60E087E33EDC83E090E09093010284
:1011C0008093000261E087E135DC61E088E132DC98
:1011D00060E080E32FDC60E08FE22CDC3CDD8111FD
:1011E00006C061E087E1F7DB60E088E1F4DB33DD36
:1011F0008823E9F360E087E1EEDB60E088E1EBDB88
:101200005524539488EB682E8BE0782E96E0E92ED7
:10121000F12C25E0C22ED12C37E0A32EB12C43E0D7
:10122000842E912C8DEC93E08DD8892B09F467C125
:101230008DEC93E065D88F3F09F015C169E672E047
:10124000CE010D9607DB60E372E0CE01019602DB72
:10125000BE016F5F7F4FCE010796C0DACE010796C1
:101260007DDDBE01635F7F4F83DABC01CE01439613
:10127000B5DACE010796ADDACE010196AADACE0133
:101280000D96A7DA62E372E08B899C8988DDCE0136
:1012900043969FDA69E672E0CE010D96DBDA66E6E8
:1012A00072E0CE010796D6DA68E672E0CE010196CA
:1012B000D1DABE01695F7F4FCE01019659DABE01D6
:1012C000635F7F4F55DABC01CE01439687DACE01CA
:1012D00001967FDACE0107967CDACE010D9679DA97
:1012E00066E672E0CE010196B5DABE016F5F7F4F10
:1012F000CE01079673DACE01079630DDBE016D5E32
:101300007F4F36DABC01CE010D9668DACE01079622
:1013100060DACE0101965DDACE0143965ADA6AE6CA
:1013200072E08D859E853BDDCE010D9652DA6AEE28
:1013300074E0CE010D96C3DC64EA72E0CE01019642
:1013400089DABE016F5F7F4FCE01079647DACE0183
:10135000079604DDBE01635F7F4F0ADABC01CE0150
:1013600043963CDACE01079634DACE01019631DAA3
:10137000CE010D962EDA67EA72E08B899C890FDD2B
:10138000CE01439626DA69E175E0CE010D9697DC31
:1013900064EA72E0CE0107965DDA68E672E0CE019B
:1013A000019658DABE01695F7F4FCE010196E0D900
:1013B000BE01635F7F4FDCD9BC01CE0143960EDADC
:1013C000CE01019606DACE01079603DACE010D961C
:1013D00000DA63EE72E0CE0101963CDABE016D5E8A
:1013E0007F4FCE010196C4D9BC01CE010796F6D934
:1013F000CE010196EED9CE014396EBD965EE72E0AF
:101400008F819885CCDCCE010796E3D969E672E03E
:10141000CE010D961FDA6AE273E0CE0101961ADA68
:10142000BE016F5F7F4FCE010796D8D9CE010796D8
:1014300095DCBE01635F7F4F9BD9BC01CE01439613
:10144000CDD9CE010796C5D9CE010196C2D9CE011C
:101450000D96BFD96DE273E08B899C89A0DCCE012B
:101460004396B7D905C0811109C081E693E065DCD8
:1014700060E08DEC93E00E94D90141C0813069F4B5
:1014800061E070E0CE010196ABDC89818F8F41E095
:1014900050E0BE01615E7F4F2EC0823079F462E081
:1014A00070E0CE0101969CDC89816CDA9E8F8D8F75
:1014B00042E050E0BE01635E7F4F1DC0833079F48F
:1014C00062E070E0CE0107968BDC1F8162E070E085
:1014D000CE01019685DC6981812F7DDA10C08430D0
:1014E00071F4E4DA698F7A8F8B8F9C8F44E050E03F
:1014F000BE01675E7F4F8DEC93E00E9447018AE654
:1015000094E0BBD8892B41F18AE694E0CDD8909342
:101510007303809372030297F9F481E090E0909353
:101520006F0380936E0300916E0310916F0317FD9C
:1015300013C08AE694E0A1D8892BD9F38AE694E017
:10154000B3D8F801E059FC4F808301501109109382
:101550006F0300936E03E7CF1092740380918203B0
:1015600090918303883C910531F48091810381112E
:1015700002C0509281038091020290910302873051
:10158000910509F49EC08330910589F134F48130CE
:10159000910569F00297D9F094C08530910509F45E
:1015A00067C00CF449C0069709F476C08AC05BDBBB
:1015B0008091000290910102039709F082C076DACF
:1015C00070937C0360937B0382E090E030C06EDA1E
:1015D00020917B0330917C03621B730B693E734047
:1015E00008F46FC090920302809202026AC0809158
:1015F0007B00877F80937B0081E480937C008091D7
:101600007A00806480937A0080917A0086FDFCCF16
:10161000809178008091790070927A0360927903CA
:1016200045DA709378036093770384E090E09093B9
:1016300003028093020245C039DA2091770330918A
:101640007803621B730B693E734008F43AC061E093
:1016500087E1C1D960E088E1BED982E090E0909353
:10166000010280930002D0920302C092020229C0BC
:10167000FADA8091000290910102039711F561E07E
:1016800086E1A9D913DA7093760360937503F0921B
:101690000302E092020215C009DA2091750330912D
:1016A0007603621B730B8091790390917A038617FE
:1016B000970738F460E086E18ED9B0920302A092D9
:1016C0000202F4D920917F0330918003621B730BD7
:1016D00080917D0390917E038617970734F482E012
:1016E00090E0909305028093040280918203909190
:1016F0008303019690938303809382030E944602A2
:1017000091CDA0E0B0E0283008F4B0CCE0E0F0E00B
:10171000AFCC82E292E090936B0480936A04809154
:101720006C0390916D038A56944071F4E0917D04AE
:10173000F0917E04908180917F048095892380833D
:1017400010926D0310926C0308951092D0031092C2
:10175000CF0388EE93E0A0E0B0E08093D1039093B4
:10176000D203A093D303B093D40320E132E03093AB
:10177000CE032093CD0325EC30E03093DA032093A1
:10178000D90324EC30E03093DC032093DB0320EC1E
:1017900030E03093DE032093DD0321EC30E0309322
:1017A000E0032093DF0322EC30E03093E203209348
:1017B000E10326EC30E03093E4032093E30310923E
:1017C000E6031092E7031092E8031092E9031092E7
:1017D0006D0410926C0480936E0490936F04A09338
:1017E0007004B093710482E292E090936B04809352
:1017F0006A04109281041092800410928304109263
:10180000820410928504109284041092870410922E
:101810008604609188046E7F6D7F6093880466956E
:10182000617081E0682789E0D6D861E089E002D95B
:10183000EBEEF1E0E491E0937A04E5EAF1E0E49183
:10184000F0E0EE0FFF1FEE57FE4F859194919093BD
:101850007C0480937B0460E08AE0ECD8809188046B
:1018600081FD03C061E08AE0B6D88AE08093760407
:10187000ECEEF1E0E491E0937704E6EAF1E0E49144
:10188000F0E0EE0FFF1FE859FE4F85919491909381
:10189000790480937804089597FB072E16F400943A
:1018A00006D077FD08D013D007FC05D03EF4909504
:1018B00081959F4F0895709561957F4F0895EE0F24
:1018C000FF1F881F8BBF0790F691E02D1994AA1B6C
:1018D000BB1B51E107C0AA1FBB1FA617B70710F01B
:1018E000A61BB70B881F991F5A95A9F7809590954D
:1018F000BC01CD0108950F931F93CF93DF938230E6
:10190000910510F482E090E0E0918B04F0918C045A
:1019100020E030E0A0E0B0E0309719F14081518143
:101920000281138148175907C8F08417950769F495
:10193000109731F012960C93129713961C9327C0B0
:1019400000938B0410938C0422C02115310519F0EB
:101950004217530718F49A01BD01EF01DF01F801A6
:10196000DBCF21153105F9F0281B390B2430310567
:1019700080F48A819B816115710521F0FB019383BD
:10198000828304C090938C0480938B04FE01329672
:1019900044C0FE01E20FF31F81939193225031095D
:1019A000398328833AC02091890430918A04232BFB
:1019B00041F4209108023091090230938A04209367
:1019C000890420910602309107022115310541F466
:1019D0002DB73EB740910A0250910B02241B350BE4
:1019E000E0918904F0918A04E217F307A0F42E1B1A
:1019F0003F0B2817390778F0AC014E5F5F4F241773
:101A0000350748F04E0F5F1F50938A0440938904B6
:101A10008193919302C0E0E0F0E0CF01DF91CF919C
:101A20001F910F910895CF93DF93009709F481C020
:101A3000FC01329713821282A0918B04B0918C0426
:101A4000109781F420813181820F931F20918904A6
:101A500030918A042817390751F5F0938A04E093EE
:101A6000890467C0ED0120E030E0CE17DF0740F4C5
:101A70004A815B819E0141155105F1F0EA01F5CFE4
:101A8000D383C28340815181840F951FC817D90722
:101A900059F488819981840F951F029691838083E0
:101AA0008A819B81938382832115310529F4F093E8
:101AB0008C04E0938B043DC0E901FB83EA834991E8
:101AC0005991C40FD51FEC17FD0761F480819181F6
:101AD000840F951F0296E9019983888382819381FF
:101AE0009B838A83E0E0F0E012968D919C9113979E
:101AF000009719F0FD01DC01F7CF8D919C911197B2
:101B00009D012E5F3F4F820F931F209189043091DA
:101B10008A042817390769F4309729F410928C0445
:101B200010928B0402C013821282B0938A04A09395
:101B30008904DF91CF9108956F927F928F929F9247
:101B4000AF92BF92CF92DF92EF92FF920F931F93CB
:101B5000CF93DF93009781F4CB01DF91CF911F9159
:101B60000F91FF90EF90DF90CF90BF90AF909F903C
:101B70008F907F906F90BFCEFC01E60FF71F9C0106
:101B800022503109E217F30708F4A5C0EC01D9018E
:101B90000D911C91119706171707A8F00530110534
:101BA00008F497C0C80104978617970708F491C0F6
:101BB00002501109061B170B019311936D937C932F
:101BC000CF0131DF86C05B01A01AB10A4C01800E43
:101BD000911EA0918B04B0918C04612C712CE12C8E
:101BE000F12C109709F446C08D919C911197A8157E
:101BF000B905B1F56C0142E0C40ED11CCA14DB0476
:101C000078F14C018A189B08640142E0C40ED11C93
:101C10001296BC9012971396AC91B5E0CB16D104F6
:101C200040F0B282A38391828082D9016D937C932C
:101C300009C00E5F1F4F800F911FF90191838083B0
:101C4000EB2DFA2FE114F10431F0D7011396FC9338
:101C5000EE9312973EC0F0938C04E0938B0439C04E
:101C60006816790608F43C017D0112960D90BC912E
:101C7000A02DB7CF8091890490918A048816990687
:101C8000E1F466167706C8F4809106029091070287
:101C9000009741F48DB79EB740910A0250910B0214
:101CA000841B950BE817F907B0F4F0938A04E093CE
:101CB0008904F901718360830CC0CB011CDE7C01B7
:101CC000009749F0A801BE011BD0CE01ACDEC701D0
:101CD00004C0CE0102C080E090E0DF91CF911F915F
:101CE0000F91FF90EF90DF90CF90BF90AF909F90BB
:101CF0008F907F906F90089581E090E0F89410C0ED
:101D0000FB01DC0102C001900D9241505040D8F718
:101D10000895FB01DC0101900D920020E1F7089588
:101D200011E0C5E1D1E000E005C0802FFE01C7DD74
:101D30002196011DC631D10780E00807B1F7F8945C
:021D4000FFCFD3
:101D420003000700020000008D0480000000000074
:101D5200D901470171012502A2018001940100000D
:101D62000000ED0247017603EC023D035403D40266
:101D7200730076657273696F6E3A2050726F746F7A
:101D8200636F6C2076657273696F6E2E2040726588
:101D92007475726E3A2056657273696F6E20737431
:101DA20072696E672E004200200070696E673A20E9
:101DB2004563686F20612076616C75652E204064F2
:101DC2006174613A2056616C75652E2040726574AB
:101DD20075726E3A2056616C7565206F662064617B
:101DE20074612E003C6800726561645F616E616CB3
:101DF2006F673A2052657475726E20616E616C6F06
:101E0200672E2040613A2050696E2E204072657420
:101E120075726E3A20616E616C6F672076616C75C7
:101E2200652E003A007365745F70696E3A207365BF
:101E3200742076616C756520746F2070696E2E2037
:101E42004070696E3A207365742074686520706909
:101E52006E2E204076616C75653A2073657420742D
:101E620068652076616C75652E003C4C0074696D66
:101E7200653A205265706F727420746865207379B8
:101E82007374656D2074696D652E2040726574757A
:101E9200726E3A2053797374656D2074696D652E84
:0A1EA20000322E302E31003B00000C
:00000001FF
